{
  "contractName": "PunchCard",
  "abi": [
    {
      "inputs": [],
      "stateMutability": "nonpayable",
      "type": "constructor"
    },
    {
      "anonymous": false,
      "inputs": [
        {
          "indexed": true,
          "internalType": "address",
          "name": "user",
          "type": "address"
        },
        {
          "indexed": false,
          "internalType": "uint256",
          "name": "timestamp",
          "type": "uint256"
        }
      ],
      "name": "Punch",
      "type": "event"
    },
    {
      "inputs": [
        {
          "internalType": "address",
          "name": "",
          "type": "address"
        },
        {
          "internalType": "uint256",
          "name": "",
          "type": "uint256"
        }
      ],
      "name": "userPunchRecords",
      "outputs": [
        {
          "internalType": "uint256",
          "name": "timestamp",
          "type": "uint256"
        }
      ],
      "stateMutability": "view",
      "type": "function"
    },
    {
      "inputs": [],
      "name": "getCurrentDateInUTC8",
      "outputs": [
        {
          "internalType": "uint256",
          "name": "",
          "type": "uint256"
        }
      ],
      "stateMutability": "view",
      "type": "function"
    },
    {
      "inputs": [
        {
          "internalType": "address",
          "name": "user",
          "type": "address"
        }
      ],
      "name": "getLastPunchDateInUTC8",
      "outputs": [
        {
          "internalType": "uint256",
          "name": "",
          "type": "uint256"
        }
      ],
      "stateMutability": "view",
      "type": "function"
    },
    {
      "inputs": [],
      "name": "punch",
      "outputs": [],
      "stateMutability": "nonpayable",
      "type": "function"
    },
    {
      "inputs": [
        {
          "internalType": "address",
          "name": "user",
          "type": "address"
        }
      ],
      "name": "getUserPunchCount",
      "outputs": [
        {
          "internalType": "uint256",
          "name": "",
          "type": "uint256"
        }
      ],
      "stateMutability": "view",
      "type": "function"
    },
    {
      "inputs": [
        {
          "internalType": "address",
          "name": "user",
          "type": "address"
        }
      ],
      "name": "getLastPunch",
      "outputs": [
        {
          "internalType": "uint256",
          "name": "timestamp",
          "type": "uint256"
        }
      ],
      "stateMutability": "view",
      "type": "function"
    },
    {
      "inputs": [
        {
          "internalType": "address",
          "name": "user",
          "type": "address"
        }
      ],
      "name": "getUserPunchRecords",
      "outputs": [
        {
          "components": [
            {
              "internalType": "uint256",
              "name": "timestamp",
              "type": "uint256"
            }
          ],
          "internalType": "struct PunchCard.PunchRecord[]",
          "name": "",
          "type": "tuple[]"
        }
      ],
      "stateMutability": "view",
      "type": "function"
    },
    {
      "inputs": [
        {
          "internalType": "address",
          "name": "user",
          "type": "address"
        }
      ],
      "name": "pay",
      "outputs": [
        {
          "internalType": "bool",
          "name": "",
          "type": "bool"
        }
      ],
      "stateMutability": "nonpayable",
      "type": "function"
    }
  ],
  "bytecode": "0x608060405234801561000f575f80fd5b5073ba17af3eb87c36b0f86af0da7a78c5e1dd5672975f806101000a81548173ffffffffffffffffffffffffffffffffffffffff021916908373ffffffffffffffffffffffffffffffffffffffff160217905550610d50806100705f395ff3fe608060405234801561000f575f80fd5b5060043610610086575f3560e01c80638088e958116100595780638088e958146101245780639092495b14610154578063970874f514610184578063f633d124146101b457610086565b80630739a3a81461008a5780630c11dedd146100ba578063408092fc146100ea578063682bb8131461011a575b5f80fd5b6100a4600480360381019061009f919061081c565b6101d2565b6040516100b1919061085f565b60405180910390f35b6100d460048036038101906100cf919061081c565b610326565b6040516100e19190610892565b60405180910390f35b61010460048036038101906100ff919061081c565b6103d5565b604051610111919061085f565b60405180910390f35b61012261051d565b005b61013e600480360381019061013991906108d5565b610680565b60405161014b919061085f565b60405180910390f35b61016e6004803603810190610169919061081c565b6106b0565b60405161017b91906109e4565b60405180910390f35b61019e6004803603810190610199919061081c565b61074e565b6040516101ab919061085f565b60405180910390f35b6101bc610797565b6040516101c9919061085f565b60405180910390f35b5f8060015f8473ffffffffffffffffffffffffffffffffffffffff1673ffffffffffffffffffffffffffffffffffffffff1681526020019081526020015f208054905011610255576040517f08c379a000000000000000000000000000000000000000000000000000000000815260040161024c90610a84565b60405180910390fd5b5f60015f8473ffffffffffffffffffffffffffffffffffffffff1673ffffffffffffffffffffffffffffffffffffffff1681526020019081526020015f206001805f8673ffffffffffffffffffffffffffffffffffffffff1673ffffffffffffffffffffffffffffffffffffffff1681526020019081526020015f20805490506102df9190610acf565b815481106102f0576102ef610b02565b5b905f5260205f20015f015490505f62015180617080836103109190610b2f565b61031a9190610b8f565b90508092505050919050565b5f805f8054906101000a900473ffffffffffffffffffffffffffffffffffffffff1673ffffffffffffffffffffffffffffffffffffffff1663a9059cbb84670de0b6b3a76400006040518363ffffffff1660e01b815260040161038a929190610c10565b6020604051808303815f875af11580156103a6573d5f803e3d5ffd5b505050506040513d601f19601f820116820180604052508101906103ca9190610c61565b905080915050919050565b5f8060015f8473ffffffffffffffffffffffffffffffffffffffff1673ffffffffffffffffffffffffffffffffffffffff1681526020019081526020015f208054905011610458576040517f08c379a000000000000000000000000000000000000000000000000000000000815260040161044f90610a84565b60405180910390fd5b5f60015f8473ffffffffffffffffffffffffffffffffffffffff1673ffffffffffffffffffffffffffffffffffffffff1681526020019081526020015f206001805f8673ffffffffffffffffffffffffffffffffffffffff1673ffffffffffffffffffffffffffffffffffffffff1681526020019081526020015f20805490506104e29190610acf565b815481106104f3576104f2610b02565b5b905f5260205f20016040518060200160405290815f820154815250509050805f0151915050919050565b5f60015f3373ffffffffffffffffffffffffffffffffffffffff1673ffffffffffffffffffffffffffffffffffffffff1681526020019081526020015f20805490501480610579575061056f336101d2565b610577610797565b115b6105b8576040517f08c379a00000000000000000000000000000000000000000000000000000000081526004016105af90610cfc565b60405180910390fd5b60015f3373ffffffffffffffffffffffffffffffffffffffff1673ffffffffffffffffffffffffffffffffffffffff1681526020019081526020015f20604051806020016040528042815250908060018154018082558091505060019003905f5260205f20015f909190919091505f820151815f015550503373ffffffffffffffffffffffffffffffffffffffff167f45c90c013058f6f390f0b696d3cc84a0d5362d14bf7c5139c4b546fa826096eb42604051610676919061085f565b60405180910390a2565b6001602052815f5260405f208181548110610699575f80fd5b905f5260205f20015f9150915050805f0154905081565b606060015f8373ffffffffffffffffffffffffffffffffffffffff1673ffffffffffffffffffffffffffffffffffffffff1681526020019081526020015f20805480602002602001604051908101604052809291908181526020015f905b82821015610743578382905f5260205f20016040518060200160405290815f820154815250508152602001906001019061070e565b505050509050919050565b5f60015f8373ffffffffffffffffffffffffffffffffffffffff1673ffffffffffffffffffffffffffffffffffffffff1681526020019081526020015f20805490509050919050565b5f8062015180617080426107ab9190610b2f565b6107b59190610b8f565b90508091505090565b5f80fd5b5f73ffffffffffffffffffffffffffffffffffffffff82169050919050565b5f6107eb826107c2565b9050919050565b6107fb816107e1565b8114610805575f80fd5b50565b5f81359050610816816107f2565b92915050565b5f60208284031215610831576108306107be565b5b5f61083e84828501610808565b91505092915050565b5f819050919050565b61085981610847565b82525050565b5f6020820190506108725f830184610850565b92915050565b5f8115159050919050565b61088c81610878565b82525050565b5f6020820190506108a55f830184610883565b92915050565b6108b481610847565b81146108be575f80fd5b50565b5f813590506108cf816108ab565b92915050565b5f80604083850312156108eb576108ea6107be565b5b5f6108f885828601610808565b9250506020610909858286016108c1565b9150509250929050565b5f81519050919050565b5f82825260208201905092915050565b5f819050602082019050919050565b61094581610847565b82525050565b602082015f82015161095f5f85018261093c565b50505050565b5f610970838361094b565b60208301905092915050565b5f602082019050919050565b5f61099282610913565b61099c818561091d565b93506109a78361092d565b805f5b838110156109d75781516109be8882610965565b97506109c98361097c565b9250506001810190506109aa565b5085935050505092915050565b5f6020820190508181035f8301526109fc8184610988565b905092915050565b5f82825260208201905092915050565b7f4e6f2070756e6368207265636f72647320666f756e6420666f722074686973205f8201527f757365722e000000000000000000000000000000000000000000000000000000602082015250565b5f610a6e602583610a04565b9150610a7982610a14565b604082019050919050565b5f6020820190508181035f830152610a9b81610a62565b9050919050565b7f4e487b71000000000000000000000000000000000000000000000000000000005f52601160045260245ffd5b5f610ad982610847565b9150610ae483610847565b9250828203905081811115610afc57610afb610aa2565b5b92915050565b7f4e487b71000000000000000000000000000000000000000000000000000000005f52603260045260245ffd5b5f610b3982610847565b9150610b4483610847565b9250828201905080821115610b5c57610b5b610aa2565b5b92915050565b7f4e487b71000000000000000000000000000000000000000000000000000000005f52601260045260245ffd5b5f610b9982610847565b9150610ba483610847565b925082610bb457610bb3610b62565b5b828204905092915050565b610bc8816107e1565b82525050565b5f819050919050565b5f819050919050565b5f610bfa610bf5610bf084610bce565b610bd7565b610847565b9050919050565b610c0a81610be0565b82525050565b5f604082019050610c235f830185610bbf565b610c306020830184610c01565b9392505050565b610c4081610878565b8114610c4a575f80fd5b50565b5f81519050610c5b81610c37565b92915050565b5f60208284031215610c7657610c756107be565b5b5f610c8384828501610c4d565b91505092915050565b7f596f75206861766520616c72656164792070756e6368656420696e20746f64615f8201527f792e000000000000000000000000000000000000000000000000000000000000602082015250565b5f610ce6602283610a04565b9150610cf182610c8c565b604082019050919050565b5f6020820190508181035f830152610d1381610cda565b905091905056fea264697066735822122089c1ae792e4afacb5c434a992e52cf4c79f22053f66a0a6f204a1b70ddbb096964736f6c63430008150033",
  "immutableReferences": {},
  "source": "// SPDX-License-Identifier: MIT\npragma solidity ^0.8.0;\n\nimport \"@openzeppelin/contracts/token/ERC20/IERC20.sol\";\n\ncontract PunchCard {\n    IERC20 private dkbToken;\n    constructor() {\n        dkbToken = IERC20(0xbA17Af3EB87c36b0f86aF0da7A78C5E1Dd567297);\n    }\n\n    struct PunchRecord {\n        uint256 timestamp; // UTC\n    }\n\n    mapping(address => PunchRecord[]) public userPunchRecords;\n\n    // \n    event Punch(address indexed user, uint256 timestamp);\n\n    // \n    function getCurrentDateInUTC8() public view returns (uint256) {\n        // UTC\n        uint256 dayCount = (block.timestamp + 8 hours) / 1 days;\n        return dayCount;\n    }\n\n    // \n    function getLastPunchDateInUTC8(address user) public view returns (uint256) {\n        require(userPunchRecords[user].length > 0, \"No punch records found for this user.\");\n        uint256 lastPunchTimestamp = userPunchRecords[user][userPunchRecords[user].length - 1].timestamp;\n        uint256 dayCount = (lastPunchTimestamp + 8 hours) / 1 days;\n        return dayCount;\n    }\n\n    // \n    function punch() public {\n        // \n        require(userPunchRecords[msg.sender].length == 0 || \n                getCurrentDateInUTC8() > getLastPunchDateInUTC8(msg.sender), \n                \"You have already punched in today.\");\n\n        // UTCIPFS CID\n        userPunchRecords[msg.sender].push(PunchRecord(block.timestamp));\n\n        // \n        emit Punch(msg.sender, block.timestamp);\n    }\n\n    // \n    function getUserPunchCount(address user) public view returns (uint256) {\n        return userPunchRecords[user].length;\n    }\n\n    // \n    function getLastPunch(address user) public view returns (uint256 timestamp) {\n        require(userPunchRecords[user].length > 0, \"No punch records found for this user.\");\n        PunchRecord memory lastRecord = userPunchRecords[user][userPunchRecords[user].length - 1];\n        return (lastRecord.timestamp);\n    }\n  \n    // \n    function getUserPunchRecords(address user) public view returns (PunchRecord[] memory) {\n        return userPunchRecords[user];\n    }\n\n    function pay(address user) public returns (bool) {\n        bool rewardSuccess = dkbToken.transfer(user, 1 ether);\n        return rewardSuccess;\n    }\n}\n",
  "sourcePath": "/Users/apple/study/dapp-daily/contracts/PunchCard.sol",
  "compiler": {
    "name": "solc",
    "version": "0.8.21+commit.d9974bed.Emscripten.clang"
  },
  "schemaVersion": "3.4.16",
  "updatedAt": "2024-03-18T08:52:38.790Z",
  "devdoc": {
    "kind": "dev",
    "methods": {},
    "version": 1
  },
  "userdoc": {
    "kind": "user",
    "methods": {},
    "version": 1
  }
}