{
  "contractName": "PunchCard",
  "abi": [
    {
      "inputs": [],
      "name": "InvalidInitialization",
      "type": "error"
    },
    {
      "inputs": [],
      "name": "NotInitializing",
      "type": "error"
    },
    {
      "inputs": [
        {
          "internalType": "address",
          "name": "owner",
          "type": "address"
        }
      ],
      "name": "OwnableInvalidOwner",
      "type": "error"
    },
    {
      "inputs": [
        {
          "internalType": "address",
          "name": "account",
          "type": "address"
        }
      ],
      "name": "OwnableUnauthorizedAccount",
      "type": "error"
    },
    {
      "anonymous": false,
      "inputs": [
        {
          "indexed": false,
          "internalType": "uint64",
          "name": "version",
          "type": "uint64"
        }
      ],
      "name": "Initialized",
      "type": "event"
    },
    {
      "anonymous": false,
      "inputs": [
        {
          "indexed": true,
          "internalType": "address",
          "name": "previousOwner",
          "type": "address"
        },
        {
          "indexed": true,
          "internalType": "address",
          "name": "newOwner",
          "type": "address"
        }
      ],
      "name": "OwnershipTransferred",
      "type": "event"
    },
    {
      "anonymous": false,
      "inputs": [
        {
          "indexed": true,
          "internalType": "address",
          "name": "user",
          "type": "address"
        },
        {
          "indexed": false,
          "internalType": "uint256",
          "name": "timestamp",
          "type": "uint256"
        }
      ],
      "name": "Punch",
      "type": "event"
    },
    {
      "inputs": [],
      "name": "owner",
      "outputs": [
        {
          "internalType": "address",
          "name": "",
          "type": "address"
        }
      ],
      "stateMutability": "view",
      "type": "function",
      "constant": true
    },
    {
      "inputs": [],
      "name": "renounceOwnership",
      "outputs": [],
      "stateMutability": "nonpayable",
      "type": "function"
    },
    {
      "inputs": [
        {
          "internalType": "address",
          "name": "newOwner",
          "type": "address"
        }
      ],
      "name": "transferOwnership",
      "outputs": [],
      "stateMutability": "nonpayable",
      "type": "function"
    },
    {
      "inputs": [
        {
          "internalType": "address",
          "name": "",
          "type": "address"
        },
        {
          "internalType": "uint256",
          "name": "",
          "type": "uint256"
        }
      ],
      "name": "userPunchRecords",
      "outputs": [
        {
          "internalType": "uint256",
          "name": "timestamp",
          "type": "uint256"
        }
      ],
      "stateMutability": "view",
      "type": "function",
      "constant": true
    },
    {
      "inputs": [],
      "name": "initialize",
      "outputs": [],
      "stateMutability": "nonpayable",
      "type": "function"
    },
    {
      "inputs": [],
      "name": "getCurrentDateInUTC8",
      "outputs": [
        {
          "internalType": "uint256",
          "name": "",
          "type": "uint256"
        }
      ],
      "stateMutability": "view",
      "type": "function",
      "constant": true
    },
    {
      "inputs": [
        {
          "internalType": "address",
          "name": "user",
          "type": "address"
        }
      ],
      "name": "getLastPunchDateInUTC8",
      "outputs": [
        {
          "internalType": "uint256",
          "name": "",
          "type": "uint256"
        }
      ],
      "stateMutability": "view",
      "type": "function",
      "constant": true
    },
    {
      "inputs": [],
      "name": "punch",
      "outputs": [],
      "stateMutability": "nonpayable",
      "type": "function"
    },
    {
      "inputs": [
        {
          "internalType": "address",
          "name": "user",
          "type": "address"
        }
      ],
      "name": "getUserPunchCount",
      "outputs": [
        {
          "internalType": "uint256",
          "name": "",
          "type": "uint256"
        }
      ],
      "stateMutability": "view",
      "type": "function",
      "constant": true
    },
    {
      "inputs": [
        {
          "internalType": "address",
          "name": "user",
          "type": "address"
        }
      ],
      "name": "getLastPunch",
      "outputs": [
        {
          "internalType": "uint256",
          "name": "timestamp",
          "type": "uint256"
        }
      ],
      "stateMutability": "view",
      "type": "function",
      "constant": true
    },
    {
      "inputs": [
        {
          "internalType": "address",
          "name": "user",
          "type": "address"
        }
      ],
      "name": "getUserPunchRecords",
      "outputs": [
        {
          "components": [
            {
              "internalType": "uint256",
              "name": "timestamp",
              "type": "uint256"
            }
          ],
          "internalType": "struct PunchCard.PunchRecord[]",
          "name": "",
          "type": "tuple[]"
        }
      ],
      "stateMutability": "view",
      "type": "function",
      "constant": true
    },
    {
      "inputs": [
        {
          "internalType": "address",
          "name": "user",
          "type": "address"
        }
      ],
      "name": "pay",
      "outputs": [
        {
          "internalType": "bool",
          "name": "",
          "type": "bool"
        }
      ],
      "stateMutability": "nonpayable",
      "type": "function"
    }
  ],
  "bytecode": "0x608060405234801561000f575f80fd5b506113768061001d5f395ff3fe608060405234801561000f575f80fd5b50600436106100b2575f3560e01c80638129fc1c1161006f5780638129fc1c1461018a5780638da5cb5b146101945780639092495b146101b2578063970874f5146101e2578063f2fde38b14610212578063f633d1241461022e576100b2565b80630739a3a8146100b65780630c11dedd146100e6578063408092fc14610116578063682bb81314610146578063715018a6146101505780638088e9581461015a575b5f80fd5b6100d060048036038101906100cb9190610dc4565b61024c565b6040516100dd9190610e07565b60405180910390f35b61010060048036038101906100fb9190610dc4565b6103a0565b60405161010d9190610e3a565b60405180910390f35b610130600480360381019061012b9190610dc4565b61044f565b60405161013d9190610e07565b60405180910390f35b61014e610597565b005b6101586106fa565b005b610174600480360381019061016f9190610e7d565b61070d565b6040516101819190610e07565b60405180910390f35b61019261073d565b005b61019c6108fc565b6040516101a99190610eca565b60405180910390f35b6101cc60048036038101906101c79190610dc4565b610931565b6040516101d99190610fb4565b60405180910390f35b6101fc60048036038101906101f79190610dc4565b6109cf565b6040516102099190610e07565b60405180910390f35b61022c60048036038101906102279190610dc4565b610a18565b005b610236610a9c565b6040516102439190610e07565b60405180910390f35b5f8060015f8473ffffffffffffffffffffffffffffffffffffffff1673ffffffffffffffffffffffffffffffffffffffff1681526020019081526020015f2080549050116102cf576040517f08c379a00000000000000000000000000000000000000000000000000000000081526004016102c690611054565b60405180910390fd5b5f60015f8473ffffffffffffffffffffffffffffffffffffffff1673ffffffffffffffffffffffffffffffffffffffff1681526020019081526020015f206001805f8673ffffffffffffffffffffffffffffffffffffffff1673ffffffffffffffffffffffffffffffffffffffff1681526020019081526020015f2080549050610359919061109f565b8154811061036a576103696110d2565b5b905f5260205f20015f015490505f620151806170808361038a91906110ff565b610394919061115f565b90508092505050919050565b5f805f8054906101000a900473ffffffffffffffffffffffffffffffffffffffff1673ffffffffffffffffffffffffffffffffffffffff1663a9059cbb84670de0b6b3a76400006040518363ffffffff1660e01b81526004016104049291906111d1565b6020604051808303815f875af1158015610420573d5f803e3d5ffd5b505050506040513d601f19601f820116820180604052508101906104449190611222565b905080915050919050565b5f8060015f8473ffffffffffffffffffffffffffffffffffffffff1673ffffffffffffffffffffffffffffffffffffffff1681526020019081526020015f2080549050116104d2576040517f08c379a00000000000000000000000000000000000000000000000000000000081526004016104c990611054565b60405180910390fd5b5f60015f8473ffffffffffffffffffffffffffffffffffffffff1673ffffffffffffffffffffffffffffffffffffffff1681526020019081526020015f206001805f8673ffffffffffffffffffffffffffffffffffffffff1673ffffffffffffffffffffffffffffffffffffffff1681526020019081526020015f208054905061055c919061109f565b8154811061056d5761056c6110d2565b5b905f5260205f20016040518060200160405290815f820154815250509050805f0151915050919050565b5f60015f3373ffffffffffffffffffffffffffffffffffffffff1673ffffffffffffffffffffffffffffffffffffffff1681526020019081526020015f208054905014806105f357506105e93361024c565b6105f1610a9c565b115b610632576040517f08c379a0000000000000000000000000000000000000000000000000000000008152600401610629906112bd565b60405180910390fd5b60015f3373ffffffffffffffffffffffffffffffffffffffff1673ffffffffffffffffffffffffffffffffffffffff1681526020019081526020015f20604051806020016040528042815250908060018154018082558091505060019003905f5260205f20015f909190919091505f820151815f015550503373ffffffffffffffffffffffffffffffffffffffff167f45c90c013058f6f390f0b696d3cc84a0d5362d14bf7c5139c4b546fa826096eb426040516106f09190610e07565b60405180910390a2565b610702610ac3565b61070b5f610b4a565b565b6001602052815f5260405f208181548110610726575f80fd5b905f5260205f20015f9150915050805f0154905081565b5f610746610c1b565b90505f815f0160089054906101000a900460ff161590505f825f015f9054906101000a900467ffffffffffffffff1690505f808267ffffffffffffffff1614801561078e5750825b90505f60018367ffffffffffffffff161480156107c157505f3073ffffffffffffffffffffffffffffffffffffffff163b145b9050811580156107cf575080155b15610806576040517ff92ee8a900000000000000000000000000000000000000000000000000000000815260040160405180910390fd5b6001855f015f6101000a81548167ffffffffffffffff021916908367ffffffffffffffff1602179055508315610853576001855f0160086101000a81548160ff0219169083151502179055505b61085c33610c42565b335f806101000a81548173ffffffffffffffffffffffffffffffffffffffff021916908373ffffffffffffffffffffffffffffffffffffffff16021790555083156108f5575f855f0160086101000a81548160ff0219169083151502179055507fc7f505b2f371ae2175ee4913f4499e1f2633a7b5936321eed1cdaeb6115181d260016040516108ec9190611327565b60405180910390a15b5050505050565b5f80610906610c56565b9050805f015f9054906101000a900473ffffffffffffffffffffffffffffffffffffffff1691505090565b606060015f8373ffffffffffffffffffffffffffffffffffffffff1673ffffffffffffffffffffffffffffffffffffffff1681526020019081526020015f20805480602002602001604051908101604052809291908181526020015f905b828210156109c4578382905f5260205f20016040518060200160405290815f820154815250508152602001906001019061098f565b505050509050919050565b5f60015f8373ffffffffffffffffffffffffffffffffffffffff1673ffffffffffffffffffffffffffffffffffffffff1681526020019081526020015f20805490509050919050565b610a20610ac3565b5f73ffffffffffffffffffffffffffffffffffffffff168173ffffffffffffffffffffffffffffffffffffffff1603610a90575f6040517f1e4fbdf7000000000000000000000000000000000000000000000000000000008152600401610a879190610eca565b60405180910390fd5b610a9981610b4a565b50565b5f806201518061708042610ab091906110ff565b610aba919061115f565b90508091505090565b610acb610c7d565b73ffffffffffffffffffffffffffffffffffffffff16610ae96108fc565b73ffffffffffffffffffffffffffffffffffffffff1614610b4857610b0c610c7d565b6040517f118cdaa7000000000000000000000000000000000000000000000000000000008152600401610b3f9190610eca565b60405180910390fd5b565b5f610b53610c56565b90505f815f015f9054906101000a900473ffffffffffffffffffffffffffffffffffffffff16905082825f015f6101000a81548173ffffffffffffffffffffffffffffffffffffffff021916908373ffffffffffffffffffffffffffffffffffffffff1602179055508273ffffffffffffffffffffffffffffffffffffffff168173ffffffffffffffffffffffffffffffffffffffff167f8be0079c531659141344cd1fd0a4f28419497f9722a3daafe3b4186f6b6457e060405160405180910390a3505050565b5f7ff0c57e16840df040f15088dc2f81fe391c3923bec73e23a9662efc9c229c6a00905090565b610c4a610c84565b610c5381610cc4565b50565b5f7f9016d09d72d40fdae2fd8ceac6b6234c7706214fd39c1cd1e609a0528c199300905090565b5f33905090565b610c8c610d48565b610cc2576040517fd7e6bcf800000000000000000000000000000000000000000000000000000000815260040160405180910390fd5b565b610ccc610c84565b5f73ffffffffffffffffffffffffffffffffffffffff168173ffffffffffffffffffffffffffffffffffffffff1603610d3c575f6040517f1e4fbdf7000000000000000000000000000000000000000000000000000000008152600401610d339190610eca565b60405180910390fd5b610d4581610b4a565b50565b5f610d51610c1b565b5f0160089054906101000a900460ff16905090565b5f80fd5b5f73ffffffffffffffffffffffffffffffffffffffff82169050919050565b5f610d9382610d6a565b9050919050565b610da381610d89565b8114610dad575f80fd5b50565b5f81359050610dbe81610d9a565b92915050565b5f60208284031215610dd957610dd8610d66565b5b5f610de684828501610db0565b91505092915050565b5f819050919050565b610e0181610def565b82525050565b5f602082019050610e1a5f830184610df8565b92915050565b5f8115159050919050565b610e3481610e20565b82525050565b5f602082019050610e4d5f830184610e2b565b92915050565b610e5c81610def565b8114610e66575f80fd5b50565b5f81359050610e7781610e53565b92915050565b5f8060408385031215610e9357610e92610d66565b5b5f610ea085828601610db0565b9250506020610eb185828601610e69565b9150509250929050565b610ec481610d89565b82525050565b5f602082019050610edd5f830184610ebb565b92915050565b5f81519050919050565b5f82825260208201905092915050565b5f819050602082019050919050565b610f1581610def565b82525050565b602082015f820151610f2f5f850182610f0c565b50505050565b5f610f408383610f1b565b60208301905092915050565b5f602082019050919050565b5f610f6282610ee3565b610f6c8185610eed565b9350610f7783610efd565b805f5b83811015610fa7578151610f8e8882610f35565b9750610f9983610f4c565b925050600181019050610f7a565b5085935050505092915050565b5f6020820190508181035f830152610fcc8184610f58565b905092915050565b5f82825260208201905092915050565b7f4e6f2070756e6368207265636f72647320666f756e6420666f722074686973205f8201527f757365722e000000000000000000000000000000000000000000000000000000602082015250565b5f61103e602583610fd4565b915061104982610fe4565b604082019050919050565b5f6020820190508181035f83015261106b81611032565b9050919050565b7f4e487b71000000000000000000000000000000000000000000000000000000005f52601160045260245ffd5b5f6110a982610def565b91506110b483610def565b92508282039050818111156110cc576110cb611072565b5b92915050565b7f4e487b71000000000000000000000000000000000000000000000000000000005f52603260045260245ffd5b5f61110982610def565b915061111483610def565b925082820190508082111561112c5761112b611072565b5b92915050565b7f4e487b71000000000000000000000000000000000000000000000000000000005f52601260045260245ffd5b5f61116982610def565b915061117483610def565b92508261118457611183611132565b5b828204905092915050565b5f819050919050565b5f819050919050565b5f6111bb6111b66111b18461118f565b611198565b610def565b9050919050565b6111cb816111a1565b82525050565b5f6040820190506111e45f830185610ebb565b6111f160208301846111c2565b9392505050565b61120181610e20565b811461120b575f80fd5b50565b5f8151905061121c816111f8565b92915050565b5f6020828403121561123757611236610d66565b5b5f6112448482850161120e565b91505092915050565b7f596f75206861766520616c72656164792070756e6368656420696e20746f64615f8201527f792e000000000000000000000000000000000000000000000000000000000000602082015250565b5f6112a7602283610fd4565b91506112b28261124d565b604082019050919050565b5f6020820190508181035f8301526112d48161129b565b9050919050565b5f819050919050565b5f67ffffffffffffffff82169050919050565b5f61131161130c611307846112db565b611198565b6112e4565b9050919050565b611321816112f7565b82525050565b5f60208201905061133a5f830184611318565b9291505056fea2646970667358221220a5da55812d28408b25fb197407199ab6e3916da973efc24e093a8a6fe01c365364736f6c63430008150033",
  "immutableReferences": {},
  "source": "// SPDX-License-Identifier: MIT\npragma solidity ^0.8.0;\n\nimport \"@openzeppelin/contracts-upgradeable/token/ERC20/ERC20Upgradeable.sol\";\nimport \"@openzeppelin/contracts-upgradeable/proxy/utils/Initializable.sol\";\nimport \"@openzeppelin/contracts-upgradeable/access/OwnableUpgradeable.sol\";\n\ncontract PunchCard is Initializable, OwnableUpgradeable {\n\n    ERC20Upgradeable private dkbToken;\n\n    function initialize() public initializer {\n      __Ownable_init(msg.sender);\n      dkbToken = ERC20Upgradeable(msg.sender);\n    }\n\n    struct PunchRecord {\n        uint256 timestamp; // UTC\n    }\n\n    mapping(address => PunchRecord[]) public userPunchRecords;\n\n    // \n    event Punch(address indexed user, uint256 timestamp);\n\n    // \n    function getCurrentDateInUTC8() public view returns (uint256) {\n        // UTC\n        uint256 dayCount = (block.timestamp + 8 hours) / 1 days;\n        return dayCount;\n    }\n\n    // \n    function getLastPunchDateInUTC8(address user) public view returns (uint256) {\n        require(userPunchRecords[user].length > 0, \"No punch records found for this user.\");\n        uint256 lastPunchTimestamp = userPunchRecords[user][userPunchRecords[user].length - 1].timestamp;\n        uint256 dayCount = (lastPunchTimestamp + 8 hours) / 1 days;\n        return dayCount;\n    }\n\n    // \n    function punch() public {\n        // \n        require(userPunchRecords[msg.sender].length == 0 || \n                getCurrentDateInUTC8() > getLastPunchDateInUTC8(msg.sender), \n                \"You have already punched in today.\");\n\n        // UTCIPFS CID\n        userPunchRecords[msg.sender].push(PunchRecord(block.timestamp));\n\n        // \n        emit Punch(msg.sender, block.timestamp);\n    }\n\n    // \n    function getUserPunchCount(address user) public view returns (uint256) {\n        return userPunchRecords[user].length;\n    }\n\n    // \n    function getLastPunch(address user) public view returns (uint256 timestamp) {\n        require(userPunchRecords[user].length > 0, \"No punch records found for this user.\");\n        PunchRecord memory lastRecord = userPunchRecords[user][userPunchRecords[user].length - 1];\n        return (lastRecord.timestamp);\n    }\n  \n    // \n    function getUserPunchRecords(address user) public view returns (PunchRecord[] memory) {\n        return userPunchRecords[user];\n    }\n\n    function pay(address user) public returns (bool) {\n        bool rewardSuccess = dkbToken.transfer(user, 1 ether);\n        return rewardSuccess;\n    }\n}\n",
  "sourcePath": "/Users/apple/study/dapp-daily/contracts/PunchCard.sol",
  "compiler": {
    "name": "solc",
    "version": "0.8.21+commit.d9974bed.Emscripten.clang"
  },
  "schemaVersion": "3.4.16",
  "updatedAt": "2024-03-15T06:52:07.921Z",
  "networkType": "ethereum",
  "devdoc": {
    "errors": {
      "InvalidInitialization()": [
        {
          "details": "The contract is already initialized."
        }
      ],
      "NotInitializing()": [
        {
          "details": "The contract is not initializing."
        }
      ],
      "OwnableInvalidOwner(address)": [
        {
          "details": "The owner is not a valid owner account. (eg. `address(0)`)"
        }
      ],
      "OwnableUnauthorizedAccount(address)": [
        {
          "details": "The caller account is not authorized to perform an operation."
        }
      ]
    },
    "events": {
      "Initialized(uint64)": {
        "details": "Triggered when the contract has been initialized or reinitialized."
      }
    },
    "kind": "dev",
    "methods": {
      "owner()": {
        "details": "Returns the address of the current owner."
      },
      "renounceOwnership()": {
        "details": "Leaves the contract without owner. It will not be possible to call `onlyOwner` functions. Can only be called by the current owner. NOTE: Renouncing ownership will leave the contract without an owner, thereby disabling any functionality that is only available to the owner."
      },
      "transferOwnership(address)": {
        "details": "Transfers ownership of the contract to a new account (`newOwner`). Can only be called by the current owner."
      }
    },
    "version": 1
  },
  "userdoc": {
    "kind": "user",
    "methods": {},
    "version": 1
  }
}